:020000040800F2
:10000000500800204D020008611900081719000867
:100010005D19000837180008EB24000800000000F4
:100020000000000000000000000000003D1B000870
:100030003B18000800000000F119000865020008E4
:1000400067020008670200086702000867020008EC
:1000500067020008670200086702000867020008DC
:1000600067020008670200086702000867020008CC
:1000700067020008670200086702000867020008BC
:1000800067020008670200086702000867020008AC
:10009000670200086702000867020008670200089C
:1000A00067020008191D00086702000867020008BF
:1000B000670200086702000867020008670200087C
:1000C000670200086702000867020008670200086C
:1000D00067020008ED20000875210008670200088B
:1000E000670200086702000867020008670200084C
:1000F000670200086702000867020008670200083C
:10010000670200086702000867020008670200082B
:10011000670200086702000867020008670200081B
:10012000670200086702000867020008670200080B
:1001300067020008670200086702000867020008FB
:1001400067020008670200086702000867020008EB
:1001500067020008670200086702000867020008DB
:1001600067020008670200086702000867020008CB
:1001700067020008670200086702000867020008BB
:10018000670200086702000800F002F800F04FF86C
:100190000AA090E8000C82448344AAF10107DA45E2
:1001A00001D100F044F8AFF2090EBAE80F0013F0E5
:1001B000010F18BFFB1A43F0010318470C2F000072
:1001C0002C2F0000103A24BF78C878C1FAD8520703
:1001D00024BF30C830C144BF04680C6070470000C1
:1001E0000023002400250026103A28BF78C1FBD840
:1001F000520728BF30C148BF0B607047642900F028
:100200009B80002070471FB502F08CFE00F0BAFC06
:1002100004000020002102F04DFC401C6060002022
:10022000002102F031FCE0601FBD10B510BD00F0F0
:10023000DFF91146FFF7E7FF02F0E0FA00F058FCA3
:1002400003B4FFF7F2FF03BC02F063FA09488047EA
:1002500009480047FEE7FEE7FEE7FEE7FEE7FEE7A8
:10026000FEE7FEE7FEE7FEE704480549054A064BC0
:1002700070470000551C000889010008500200204A
:100280005008002050040020500400207047000057
:100290000FB4044910B503AA029800F00FF910BC7E
:1002A0005DF814FB240000200FB41CB5074B06AA10
:1002B0007B4469460090059800F0E7F80020694605
:1002C00000F0F6F81CBC5DF814FB0000FD01000016
:1002D0002DE9F0410E460446002020622046E168E8
:1002E000884730B3252805D0D4E901219047206AFA
:1002F000401CF2E7E168204600278847050018D037
:10030000A5F14100192802D820354FF40067324684
:10031000294620462760FFF771FF40B1012804D02D
:10032000F61D26F007060836D8E7361DD6E728461C
:10033000DAE7206ABDE8F0812DE9F04106460024A5
:1003400010687529314616A510D0AFF3008000283B
:1003500002DA404213A507E031688A0701D512A5E9
:1003600002E0490704D511A5012401E0AFF30080A4
:1003700000210A2206F1240709E0B0FBF2FCB0FBE1
:10038000F2F302FB1C00303078541846491C002858
:10039000F3D123462A463046BDE8F04100F017B8B5
:1003A000000000002D0000002B00000020000000D5
:1003B000704770477047704710B500F0E3F8006869
:1003C00010BD10B5044600F0DDF8046010BD2DE945
:1003D000F0470D4699469246044600F1240801680C
:1003E000880604D5E06921F01001216000E00120B9
:1003F000A84201DD471B00E00027A1697A1902EB42
:100400000900081AA0612078C00602D42046AFF384
:100410000080002608E0D4E901211AF80600904780
:10042000206A401C761C20624E45F4DB2078C00612
:100430000AD52046AFF3008006E0D4E90121302040
:100440009047206A401C2062381EA7F10107F4DCA7
:1004500007E0D4E9012118F805009047206A401C04
:100460002062281EA5F10105F3DC2046AFF30080D1
:100470002078000602D50220BDE8F0870120FBE7C6
:1004800001694A1C02610878704700B58FB0CDE958
:1004900001310021059105497944CDE90310114648
:1004A0006846FFF715FF0FB000BD0000E5FFFFFF36
:1004B0000A6802F8010B0A6070470000074B70B52C
:1004C0000D467B44FFF7E1FF0446284600F087F81D
:1004D00010B14FF0FF3070BD204670BD8F2200007C
:1004E0000FB4002300B589B00CA900910B99CB6023
:1004F000214B7B440693214B7B44079304236FF0ED
:100500000042CDE901321E4A7A446B460892024607
:10051000002002F071FD09B05DF814FB70B50646CD
:100520004FF0FF3015460C46324686B00091CDE9BB
:10053000010169460020049004A8FFF7D1FF02469C
:100540000498211825B108B1084600E0204628602B
:10055000049800280DD0002A02DD0098884208D0B7
:100560003246081B69460094CDE9010404A8FFF750
:10057000B7FF06B070BD0000A9000000C100000078
:100580008100000000487047F001002010B50446CB
:1005900000F054F80068005D00F0010010BD4268F2
:1005A00042B1016811F8013B23B1521EC0E90012AB
:1005B000184670470121C160881E704742685AB1D1
:1005C000C368016843B983688B4205D0491E521C39
:1005D000C0E90012002070474FF0FF307047007BE9
:1005E00000F080007047000000487047F0010020D4
:1005F0007546FFF7F9FFAE4605006946534620F001
:100600000700854618B020B5FFF72EFEBDE8204054
:100610004FF000064FF000074FF000084FF0000BBE
:1006200021F00701AC46ACE8C009ACE8C009ACE871
:10063000C009ACE8C0098D467047000010B500F055
:10064000A1FA001D10BD00BF6D2400002DE9FF4F71
:10065000064689B00878FF2806D0491C2D2805D009
:1006600000244FF0000908E000200CE00124F8E726
:1006700009EB8903491C00EB43090878FF28F7D1EF
:1006800014B1C9F100008146107800252C46AA4615
:1006900029462D2801D02B2804D1521C2D2813D0F7
:1006A000002082468B461078FF280FD04FF0000CB8
:1006B0000A21521CA5FB017804FB018105FB0C11EA
:1006C000C5194BEB0104EEE70120EAE700210846DB
:1006D0004FF00000BAF1000F02D000EB800040089C
:1006E000C0F38158B8F1010F01DD4FF0FF380C98CD
:1006F00009EB000755EA040009D04FF0020917F58D
:10070000FA7F0BDA4FEACA70C6E900B012E04FEA8E
:10071000CA70C6E900B00DB0BDE8F08FB7F5FA7F3A
:100720000DDDF0487844D0E90010C6E9001040EA39
:10073000CA707060FFF726FFC0F80090EBE7391E23
:1007400002DAC8F1000200E0424600DA794206A867
:1007500000F01CFA06AB93E8070003AB83E8070040
:1007600044F23E005BEA04010090584604D144F292
:100770001E012C465D460091210C0904014306D15F
:100780000099240444EA15442D041039009104F022
:100790007F41014306D10099240244EA15642D02E9
:1007A0000839009104F07041014306D100992401F9
:1007B00044EA15742D01091F009104F040410143E2
:1007C00006D10099A40044EA9574AD00891E0091F9
:1007D00004F00041084304D100986D196441401EA3
:1007E000009042466846002FCDE9014503A902DD8D
:1007F00000F0EBFE01E000F0C0FEBAF1000F04468D
:100800000D4601D084F0004440F2FF7724F0004010
:10081000284303D0C4F30A50B84212D1FFF7B2FE06
:10082000C0F80090C4F30A50B8420AD1AE487844E8
:10083000D0E90010C6E9001004F0004108437060E0
:1008400069E7C6E9005466E72DE9FF4F1F464FF000
:10085000000A4FF0FF38454691B0D7E90146CDF880
:100860003CA000F08FF9C0680168405C1090B96945
:1008700012986D1C8847396A814688470028F6D14E
:10088000B9F1FF3F0AD0002E24F4D06411DDB9F194
:100890002B0F08D0B9F12D0F0BD102E0404615B057
:1008A0003AE744F48064B96912986D1C8847761E53
:1008B0008146600504A901D52D2000E02B20002EE3
:1008C00001F1010B0DF130088DF810003FDDB9F199
:1008D000690F08D0B9F1490F05D0B9F16E0F02D0F8
:1008E000B9F14E0F1CD13B4601A8009580E850029B
:1008F000DDE912126FF0020002F082FBC11CCED1C2
:100900000EE0B96912986D1C884781461398761ECF
:1009100044F4007405600F98401C002E0F9016DD03
:10092000B9F1300FEDD0B9F1780F02D0B9F1580F0D
:100930000DD10F9801280AD13B46CDE90054DDE9DD
:100940001212001F029602F059FBC11CA7D1109988
:1009500089453ED144F0800406E01399681CAAF151
:10096000010A44F400740860B9696D1C1298761E7F
:10097000884730288146F0D02BE01099894505D171
:10098000200603D4761E44F0800418E0484601F0A7
:10099000B9FE08B3761E0DF123018B4544F40074B3
:1009A00008D2A9F130000BF8010B200607D5AAF1F7
:1009B000010003E0200602D40AF101008246A005EE
:1009C00002D51399681C0860B96912986D1C884794
:1009D0008146002ED1DC53E0002E51DDB9F1650FC8
:1009E00002D0B9F1450F4BD1A00549D5B9696D1CAD
:1009F0001298761E24F440748847002E81460CDD40
:100A00002B2804D0B9F12D0F07D144F48074B969B3
:100A100012986D1C8847761E8146E00501D52D2170
:100A200000E02B2108F8011BCDF8008021E0761EA4
:100A30000DF13901884544F400740CD2A9F130005D
:100A400010F0FF0088F8000002D10099884509D90C
:100A500008F1010806E0E00501D5244801E042F272
:100A60000F708246B96912986D1C884781461398A9
:100A70000560002E04DD484601F044FE0028D6D172
:100A8000F96912988847FF2053468BF8000088F8D0
:100A9000000000200A900B9004AA0CA90AA8FFF7F6
:100AA000D5FDA00502D46FF00100F8E614F0240F84
:100AB0000AD0E00714D13868DDE90A12031D3B6053
:100AC0000068C0E900120BE00AA9684601F0B4FD15
:100AD000E00705D13868009A011D3960006802609E
:100AE0002846DCE6C0290000B6280000F1D8FFFF48
:100AF00010B50446AFF300802046BDE81040FFF774
:100B00009FBB00004FF0013C50F8042B51F8043B10
:100B10009A4221D1A2EB0C03934313EACC1317D1D1
:100B200050F8042B51F8043B9A4215D1A2EB0C0368
:100B3000934313EACC130BD150F8042B51F8043B28
:100B40009A4209D1A2EB0C03934313EACC13DBD0F6
:100B50004FF00000704700BFD01A01BAB1FA81F11E
:100B600001F0180122FA01F0CB40C1F12001DBB203
:100B7000C0B2C01A2CFA01F3D11A914311EAC31181
:100B8000E6D1704700487047100200202DE9F04779
:100B9000814616468AB0334878440DC88DE80D006A
:100BA00030487844801C03AC0DC884E80D0041F641
:100BB0009B300844372190FBF1F290FBF1F5A5F151
:100BC000800501FB12041B3C02D56442012000E0B9
:100BD0000020DFF890A080460027FA44AAF1BE0A60
:100BE0000DE0E00709D03246684607EB47010AEB03
:100BF000810100F0D6FC8DE8070064107F1C002CFA
:100C0000EFD1184F7F44AC3F18E0E80714D007EB52
:100C100004100DF1180A90E80E008AE80E00C06872
:100C2000F04201D198190890324606A903A800F0B5
:100C3000B8FC03AB83E807006D10641C002DE4D101
:100C400032466946B8F1000F03A802D000F081FCDB
:100C500001E000F0A6FCC9E90001C9F808200AB0CB
:100C6000BDE8F087142500002DE9FF4F1F464FF027
:100C70003C0987B04FF00042DDE9141001F1010892
:100C8000DDF858A002EA405003900020059083460A
:100C9000054604460490B969461E08988847AAF19B
:100CA000010A0290BAF1000F3BDD02982E2815D000
:100CB000102100F016FA00282EDB4FF0010B0599E9
:100CC000014317D0B9F1000F0BDB4A46C11700F002
:100CD000F5F905430C43A9F1040905E0012004904E
:100CE0000BE008B145F0010501200590049820B9FA
:100CF000361D02E0049800B1361FB969089808F162
:100D000001088847BBF1000FAAF1010A0290C9D07F
:100D10000999C1F80080C5E70298702808D05028CA
:100D200006D0F96908988847BBF1000F14D04FE04E
:100D3000002002900120BBF1000F049009D0B96996
:100D4000089808F101088847AAF10109B9F1000FD4
:100D500007DCF969089888476FF001000BB0BDE81F
:100D6000F08F2B2804D02D280CD14FF0FF300490A9
:100D7000B969089808F101088847A9F10109B9F192
:100D8000000FE6DD411CE4D00A2100F0AAF900289A
:100D9000DFDB029908F1010801EB810100EB410062
:100DA0000290B969089888470A2100F09AF9099ACF
:100DB000A9F10109B9F1000FC2F8008001DD002896
:100DC000E7DAF969089888470499029800FB0166F8
:100DD00055EA040004D004F04041090002D006E0C6
:100DE000039898E0A40044EA9574AD00B61E04F0A0
:100DF0000041080002D16D196441761E159810F06B
:100E0000240F03D04FF00B095C4803E04FF0280992
:100E10006FF07D008246564507DAAAEB0601894449
:100E2000B9F1410F01DD4FF0410901200021A9F185
:100E3000010200F043F9024628400B4621400843D6
:100E400001D0012100E00021501E029143F1FF3149
:100E500028402140084301D0012000E000200299F1
:100E6000834651EA0B014FD0002108464FF00000A5
:100E7000039900F4400039B100EB80004FF44001C9
:100E800000EBD07001EA60008015012802DD4FF010
:100E9000FF3000E013D0401C36D0029860B3BBF1A5
:100EA000000F0CD14A460120002100F007F928402C
:100EB0002140084301D0012000E00020E0B10120E2
:100EC0004A46002100F0FAF8034640190A466141FB
:100ED0002D1A8C4111D3B9F1400F09DD159810F08E
:100EE000240F02D0AAF1340603E0AAF1170600E0AD
:100EF000761C00254FF0004406E05B1E42F1FF32F5
:100F000020EA030521EA0204CAF10100B04206DA30
:100F10001B49039808430190002000900EE0039ABB
:100F2000C4F3D321E80A0A43164940EA44500A436D
:100F30003146CDE90002684601F0DAFB159810F061
:100F4000240F0BD01598C00715D13868DDE90012C1
:100F5000031D3B600068C0E900120CE002A869466E
:100F600001F06AFB1598C00705D13868029A011D87
:100F70003960006802604046F0E6000002FCFFFFB6
:100F80000000F07F0000F03F2DE9FF4F92461D4624
:100F900085B04FF00041DDE9124BDDE914727F1E90
:100FA00001EA4B50414940F0FF4940EA0108002165
:100FB00022F020004928049102D04E2828D04CE08D
:100FC0003BA0012607C88DE80700A9690698641CA4
:100FD00088477F1E014606D41DF8060018B121F08F
:100FE000200181420BD0E96906988847032E34D04E
:100FF000082E32D06FF0010009B0BDE8F08F761CEA
:10100000032E01D0082EE0D1601CCAF80000DCE7F6
:10101000A9690698641C88477F1E2AD420F0200006
:10102000412826D1A9690698641C88477F1E20D4D0
:1010300020F020004E281CD1A9690698641C88471E
:101040007F1E48F4002849F48009CAF8004001D402
:10105000282806D0E969069888475FEACB7012D045
:1010600022E0A9690698641C88477F1E01D40028E5
:1010700003DAE96906988847BCE72928F1D1641C9E
:10108000CAF80040E9E71BF0240F07D0286804994C
:10109000031D2B600068C0E9001805E02868021DE8
:1010A0002A600068C0F800902046A5E70000F07FA5
:1010B000494E46494E49545900000000B2F1200300
:1010C0000AD5C2F1200301FA02F120FA03F300FA73
:1010D00002F041EA0301704700FA03F14FF000000B
:1010E00070473A2800D2303820F02002412A01D33C
:1010F000A2F13700884201D34FF0FF30704720F053
:101100007F4C80EA030023F07F47ACEB070303F535
:101110007C5300F0004003F1FF032DE980494FEAC2
:10112000154B09B44FEA144325EA0B4E24EA034851
:101130000FF2042606EB132749083E785FEA3202D5
:1011400003FB0667C7F5000707FB06F64FEA5437AF
:101150004FEAD64606F1020607FB066CCCF1005CAE
:101160004FEA1C472CEA074C07FB06F40CFB06F57C
:1011700004EB15464FEA961634BF00204FF00040AE
:101180004FEAD13706FB07FC4FEA1C4C0CFB0BF770
:10119000D21B03FB0CF761EB07010CFB0EF7B0EB66
:1011A000074072EB17420CFB08F734BFA2EB074273
:1011B000B2EB074261EB17414FEA0C444FEA91074B
:1011C00006FB07FC4FEA1C4C0CFB0BF7B0EBC740CF
:1011D00072EB573203FB0CF734BFA2EBC742B2EB02
:1011E000C74261EB57310CFB0EF7B0EBC70072EB57
:1011F00057720CFB08F734BFA2EBC702B2EBC70271
:1012000061EB5771039F4FEA816141EA921104EB50
:10121000CC044FEAD1374FEA826206FB07FC42EA70
:1012200090124FEA80604FEA1C4C0CFB0BF7D21B6C
:1012300003FB0CF761EB07010CFB0EF7B0EB07406B
:1012400072EB17420CFB08F734BFA2EB0742B2EB7C
:10125000074261EB17414FEA8C554FEA910704EBC7
:101260009C2406FB07FC4FEA1C4C0CFB0BF7B0EB75
:10127000C74072EB573203FB0CF734BFA2EBC742F7
:10128000B2EBC74261EB57310CFB0EF7B0EBC70076
:1012900072EB57720CFB08F734BFA2EBC702B2EB3C
:1012A000C70261EB577115EB4C254FEA816141EAAA
:1012B00092114FEA82624FEAD13742EA901206FB5E
:1012C00007FC44F100044FEA80604FEA1C4C0CFB21
:1012D0000BF7D21B03FB0CF761EB07010CFB0EF7BE
:1012E000B0EB074072EB17420CFB08F734BFA2EBE0
:1012F0000742B2EB074261EB174115EB1C154FEAB1
:10130000813141EA92414FEA823242EA90424FEA09
:1013100080304FEA0C7644F1000448EA03434EEA79
:101320000B484FF0000EB2EB080C71EB030724BF23
:10133000624639464EEB0E0E4FF0000B001852413C
:1013400049414BEB0B0BB2EB080C71EB03077BF144
:10135000000B24BF624639464EEB0E0E4FF0000BD9
:101360000018524149414BEB0B0BB2EB080C71EBEF
:1013700003077BF1000B24BF624639464EEB0E0E8D
:1013800051EA020718BF46F0010616EB0E7655F13A
:10139000000254F1000103D5BDE88901BDE80088D1
:1013A000BDE88901BDE80048B619524141EB010191
:1013B000A3F10103704780807F7E7D7C7B7A797802
:1013C000777676757473727171706F6E6E6D6C6C0A
:1013D0006B6A6A69686867666665646463636261AC
:1013E0006160605F5F5E5E5D5D5C5C5B5B5A5A592D
:1013F0005958585757565655555554545353525299
:101400005251515050504F4F4F4E4E4D4D4D4C4CF0
:101410004C4B4B4B4A4A4A49494948484847474739
:101420004746464645454544444444434343434276
:10143000424242414141000046EA0646A3F570534C
:101440004FEA164646EA42564FEAD22242EA415253
:1014500010B54FEAD121A3F1010300F017F820F0F5
:10146000004000F1010C00F0004701EB0050114674
:10147000BCF5006F40EA070000D210BD02484FF0F3
:10148000000140EA070010BD0000F07F002B26D4C9
:10149000770021D01CB54FEA370703B44FF0100096
:1014A0004FF010014FF000000FBCBDE810400BF1F1
:1014B000010BBBF1010F08BF5FEA170722BF12F152
:1014C000010211F101014FF0004143F1000300F06E
:1014D000004043EA00007047F9D35708DAE746EACC
:1014E000064613F1400F4FEA16461FDD13F1200F99
:1014F000DFBF16430A46002120335B42C8D0C3F148
:10150000200746EA064602FA07F74FEA164646EA79
:101510000706C3F1200722FA03F201FA07F721FABE
:1015200003F14FF0000342EA0702B1E746EA020680
:1015300046EA06464FEA164646EA0106BCBF46EAB8
:101540000646360C4FF000034FF000024FF000014A
:101550009EE72DE9C048934630B491E8380007C8AB
:1015600031EA400C48BF34EA430C03D5FFF7C7FD0E
:10157000FFF78CFFF0BCBDE800882DE9C04893461A
:1015800030B491E8380007C831EA400C48BF34EA6B
:10159000430C03D5FFF7B3FDFFF74EFFF0BCBDE8EA
:1015A00000882DE9C048934630B491E8380007C858
:1015B00010F0804F08BF13F0804F03D100F019F8EE
:1015C000FFF764FFF0BCBDE800882DE9C0489346F2
:1015D00030B491E8380007C810F0804F08BF13F00E
:1015E000804F03D100F005F8FFF726FFF0BCBDE8FF
:1015F000008820F07F4780EA030023F07F4C07EB50
:101600000C03A3F57C5300F00040A3F1FE0392F01D
:10161000000F00F0B38095F0000F00F077802DE907
:1016200001494FEA11404FEA144621EA004800FB05
:1016300006FC24EA064708FB06F607FB08F800FB51
:1016400007F718EB06484CEB164C4FEA124B18EB19
:1016500007484FEA15464CEB174022EA0B4E0BFBAE
:1016600006FC25EA06470EFB06F607FB0EFE0BFB03
:1016700007F71EEB064E4CEB164C4FF000061EEB28
:10168000074E4CEB174B18EB0B0840F1000018EB22
:101690000E0B58EB000840F100008F1A4FF00001CC
:1016A0003CBFC943661B14BFB5EB040C00213CBF13
:1016B000C943F61B4FEA17444EEA8E0E27EA04454B
:1016C0004FEA1C4704FB07622CEA074C05FB07F7AF
:1016D0000CFB05F604FB0CFC16EB074642EB17422D
:1016E00016EB0C4642EB1C421BEB060658EB0202C3
:1016F000414146EA9E0601D5BDE80189B61952412D
:1017000041EB0101A3F10103BDE801894FEA144552
:101710004FEA114724EA054621EA074C05FB07F486
:1017200006FB07F70CFB06F105FB0CFC11EB074170
:1017300044EB17444FEA124711EB0C4144EB1C44B5
:1017400022EA074C05FB07F206FB07F70CFB06F63F
:1017500005FB0CFC16EB074642EB174216EB0C465A
:1017600042EB1C456A1854F1000148BF7047B61996
:10177000524141EB0101A3F10103704795F0000FC5
:1017800037D04FEA11424FEA144721EA024624EAD1
:10179000074C02FB07F106FB07F70CFB06F402FB04
:1017A0000CFC14EB074441EB17414FEA154714EBCF
:1017B0000C4441EB1C4125EA074C02FB07F506FBF4
:1017C00007F70CFB06F602FB0CFC16EB074645EB95
:1017D000174516EB0C4645EB1C42121951F100015E
:1017E00048BF7047B619524141EB0101A3F1010313
:1017F00070474FEA14454FEA114724EA054621EAAB
:10180000074C05FB07F106FB07F70CFB06F24FF050
:10181000000605FB0CFC12EB074241EB174112EBF3
:101820000C4251EB1C4148BF7047921841EB01013B
:10183000A3F10103704700BFFEE77047F0B50A4609
:1018400000210023002400BF3DE0012505FA01F33B
:10185000156805EA03049C4234D105684F0003264D
:10186000BE40B543056015794E00B5400668354366
:1018700005601579012D02D01579022D16D18568E4
:101880004F000326BE40B543856055794E00B540F4
:10189000866835438560456801268E40B5434560BE
:1018A000456896798E40B6B235434560C5684F00AD
:1018B0000326BE40B543C560D5794E00B540C66825
:1018C0003543C560491C1029BFD3F0BDF0B50023D6
:1018D00000244D07ED0E02FA05F3CE1000F12005AD
:1018E00055F826504E07F70E0F26BE40B543CF10D1
:1018F00000F1200646F82750CE1000F1200555F8DB
:10190000265045EA0304CE1000F1200545F8264094
:10191000F0BD0183704700BFFEE700001CB5012148
:10192000202000F067F84FF4C060009001208DF88F
:10193000040000208DF8060003208DF8050001202A
:101940008DF8070069460448FFF778FF4FF4C0613F
:101950000148FFF7DEFF1CBD0014024000BFFEE798
:101960007047000070B5002100230F22C4781CB31B
:10197000174C246804F4E064C4F5E064C4F3072160
:10198000C1F10404E3B20A4144789C40E1B2847896
:10199000144021430C07210E0E4C05786155047844
:1019A00004F01F050124AC4005786D11AD0005F170
:1019B000E025C5F8004109E0047804F01F05012482
:1019C000AC40054D0678761145F8264070BD000004
:1019D0000CED00E000E400E080E100E0024901439A
:1019E000024A1160704700000000FA050CED00E0AB
:1019F0007047000029B1064A12680243044B1A607E
:101A000004E0034A12688243014B1A6070470000E9
:101A10003038024029B1064A12680243044B1A606A
:101A200004E0034A12688243014B1A6070470000C9
:101A30004038024029B1064A12680243044B1A603A
:101A400004E0034A12688243014B1A6070470000A9
:101A500044380240F0B5002100220024022500266F
:101A60000223324F3F6807F00C0121B1042905D051
:101A7000082937D105E02E4F076036E02D4F07606B
:101A800033E02A4F3F1F3F68C7F38056274F3F1F61
:101A90003F6807F03F036EB1264FB7FBF3F7DFF85F
:101AA0008CC0ACF1040CDCF800C0CCF3881C07FB44
:101AB0000CF40CE01E4FB7FBF3F7DFF870C0ACF18D
:101AC000040CDCF800C0CCF3881C07FB0CF4174FA7
:101AD0003F1F3F68C7F301477F1C7D00B4FBF5F74C
:101AE000076002E0124F076000BF00BF0F4F3F6862
:101AF00007F0F0010909104F7A5C0768D74047608A
:101B00000A4F3F6807F4E051890A0B4F7A5C476837
:101B1000D7408760054F3F6807F46041490B064F87
:101B20007A5C4768D740C760F0BD000008380240C3
:101B30000024F40000127A002A0000207047000000
:101B40000CB50020019000903448006840F48030CB
:101B50003249086000BF3148006800F4003000904E
:101B60000198401C0190009818B90198B0F5A04F59
:101B7000F1D12A48006800F4003010B10120009033
:101B800001E0002000900098012846D12348403011
:101B9000006840F0805021494031086020480068CA
:101BA00040F440401E4908601C48083000681B494A
:101BB000083108600846006840F4004008600846A4
:101BC000006840F4A05008601648091F0860081F0C
:101BD000006840F08070091F086000BF0F4800686F
:101BE00000F000700028F9D040F205700E4908603E
:101BF0000A480830006820F00300084908310860EE
:101C00000846006840F00200086000BF0348083042
:101C1000006800F00C000828F8D10CBD0038024024
:101C20000070004008544007003C0240042808D1DE
:101C30004FF0E021096941F004014FF0E022116109
:101C400007E04FF0E021096921F004014FF0E022A4
:101C50001161704710B51548006840F470001349D1
:101C600008601348006840F0010011490860002036
:101C70000F49083108600E4800680E4908400C49B9
:101C800008600D48091D0860081F006820F48020C6
:101C9000091F0860002006490C310860FFF750FF5B
:101CA0004FF0006001498039086010BD88ED00E008
:101CB00000380240FFFFF6FE103000247FB50546D5
:101CC0000C4601210846FFF7B5FE0295ADF8044029
:101CD0000020ADF80600ADF80C0001A90D4800F099
:101CE000C3F9012211460B4800F009F90121094806
:101CF00000F0D9F819208DF8000001208DF80100BE
:101D000003208DF8020001208DF803006846FFF7DC
:101D100029FE7FBD0000014010B50121094800F0F7
:101D2000DDF8012809D108480068401C0649086010
:101D30000846016805A0FEF7ABFA0121014800F052
:101D4000AFF810BD000001401C0000200D0AC4FACD
:101D5000B7A2CBCDB5C4CFFBCFA2CEAA25643A0D96
:101D60000A00000030B58BB004460D460121022068
:101D7000FFF760FE01210802FFF73CFE0322052168
:101D80003F48FFF7A3FD032206213D48FFF79EFDD4
:101D90002020099002208DF8280003208DF82900CA
:101DA00000208DF82A0001208DF82B0009A9344865
:101DB000FFF744FD4020099002208DF82800032001
:101DC0008DF8290000208DF82A0001208DF82B00C5
:101DD00009A92B48FFF732FDA8B2ADF81800002082
:101DE000ADF81A000794ADF8200006A9254800F0C8
:101DF0003BF97020ADF804000120ADF80600022088
:101E0000ADF810000020ADF808004FF48070ADF878
:101E1000140003944000ADF8160001A9194800F021
:101E200077F80821174800F0B1F87020ADF80400E9
:101E30000120ADF806000220ADF810000020ADF83A
:101E400008004FF48070ADF814004000ADF81600A3
:101E5000039401A90B4800F0A3F80821094800F0F9
:101E6000F1F80121074800F00FF80121054800F0C2
:101E70001AF80121034800F022F80BB030BD000031
:101E8000002002400004014021B1028842F080029B
:101E9000028004E002884FF67F731A400280704788
:101EA000CA430282704721B1028842F001020280D7
:101EB00004E002884FF6FE731A400280704731B189
:101EC000B0F8442042F40042A0F8442005E0B0F805
:101ED0004420C2F30E02A0F84420704730B50246F9
:101EE000002000230024158A05EA0103958905EAEC
:101EF000010413B10CB1012000E0002030BD1AB183
:101F000083890B43838102E083898B4383817047FC
:101F100070B5002400220023058C4FF6FE76354074
:101F20000584028C8388048B4FF68F752C40B51E78
:101F30002C400D882C43751E2A408D892A434D88DC
:101F40002A43104DA84202D00F4DA84213D14FF69C
:101F5000F7752A40CD892A434FF6FB752A408D88B4
:101F60002A434FF6FF652B404FF6FF552B400D8A55
:101F70002B434D8A2B43838004838D684563028401
:101F800070BD000000000140000401400A4600212D
:101F9000018B4FF6F773194011430183704700001E
:101FA00070B5002400220023058C4FF6EF763540F3
:101FB0000584028C8388048B48F6FF752C404FF60D
:101FC000FF452C400D884FF6FF7606EA05252C4389
:101FD0004FF6DF752A408D8906EA05152A434D889C
:101FE00006EA05152A43154DA84202D0144DA84211
:101FF0001DD14FF67F752A40CD894FF6FF7606EA50
:1020000005152A434FF6BF752A408D8806EA051547
:102010002A434FF6FF352B404FF2FF752B400D8AB8
:1020200006EA85052B434D8A06EA85052B43838006
:1020300004838D688563028470BD00000000014048
:10204000000401400A460021018B4FF2FF73194042
:102050004FF6FF7303EA022319430183704741637C
:10206000704781637047000000220288184B984235
:102070000ED0184B98420BD0B0F1804F08D0164BC1
:10208000984205D0154B984202D0154B984204D186
:102090004FF68F731A404B881A43124B984207D061
:1020A000114B984204D04FF6FF431A400B891A4354
:1020B00002804B68C3620B880385054B984202D0AF
:1020C000044B984201D18B7A0386012383827047A7
:1020D00000000140000401400004004000080040EE
:1020E000000C0040001000400014004010B540F209
:1020F00025511D4800F037F910B31B4800F0ECF9EA
:10210000C4B21A48008800F40040C8B917480088D3
:1021100000F4804060B10A2C03D0002013490880ED
:1021200020E01248008840F400401049088019E07F
:102130000D2C06D10D48008840F480400B490880E2
:1021400010E00A480088C0F30D0009490C54074804
:102150000088401C0549088008460088C72801DD22
:102160000020088010BD0000001001402800002061
:102170002801002010B52DED028B82B05AA103C9B1
:10218000CDE900015A480078052802DD00205849B1
:10219000087040F22551574800F0E5F8002829D092
:1021A000544800F099F9C4B2532C07D10120524988
:1021B00008700020514908804D4908704E48007849
:1021C0000028ECD04D4801880088401C4B4A108004
:1021D0004B4844541046008801280CDD1046008806
:1021E000082808DA424801780078401C404A1070FC
:1021F0004448445474E0414800880A280DDD3F48B3
:102200000088112809DA3A4801780078401C384AD9
:1022100010703C48C01D445462E0384800881528BE
:102220000DDD364800881C2809DA3148017800782D
:10223000401C2F4A107033480E30445450E02F4851
:10224000008821280DDD2D480088282809DA284833
:1022500001780078401C264A10702A4815304454F2
:102260003EE02648008827283ADD002022490870F1
:102270001F490870234800F03BF9B0EE408AF0EEA9
:10228000608A51EC180B00F0ADFC1E498883C81D14
:1022900000F02EF9B0EE408AF0EE608A51EC180B97
:1022A00000F0A0FC1749C88301F10E0000F020F9EE
:1022B000B0EE408AF0EE608A51EC180B00F092FC10
:1022C0001049088401F1150000F012F9B0EE408ABF
:1022D000F0EE608A51EC180B00F084FC0949488448
:1022E00002B0BDEC028B10BD303030303137000011
:1022F0001A000020004400401B00002018000020AD
:102300003C0000200401002070B505460E46002464
:102310000BE0295D064800F0E4F800BF40210448C6
:1023200000F014F80128F9D1641CB442F1DB70BD4F
:102330000044004021B1828942F40052828104E0CD
:1023400082894DF6FF731A40828170470246002051
:10235000B1F5007F00D100BF13880B400BB1012005
:1023600000E00020704770B50246002400230025DD
:10237000002040F66A16B14200D100BFC1F34215F9
:1023800001F01F03012606FA03F3012D02D19689FD
:10239000334006E0022D02D1168A334001E0968ACE
:1023A00033400C12012606FA04F41688344013B1A7
:1023B0000CB1012000E0002070BDF0B50346002400
:1023C00000260025002040F66A17B94200D100BF60
:1023D0001846C1F3421401F01F06012707FA06F55B
:1023E000012C01D10C3004E0022C01D1103000E0AE
:1023F00014301AB107682F43076002E00768AF4343
:102400000760F0BD2DE9FF4705460E460024A146B2
:1024100000BFA046B08900B100BF2C8A24F440540C
:10242000F08804432C82AC8941F20C608443B0886C
:1024300031890843718908430443AC81AC8A24F490
:102440004074B0890443AC826846FFF703FB204820
:10245000854202D01F48854202D1DDF80C9001E090
:10246000DDF80890A88900F4004040B109EBC900EC
:1024700000EB091031684900B0FBF1F707E009EB08
:10248000C90000EB091031688900B0FBF1F7642046
:10249000B7FBF0F004012009642101FB1078A88942
:1024A00000F4004040B1322000EBC800B0FBF1F076
:1024B00000F00700044308E0322000EB081064211C
:1024C000B0FBF1F000F00F0004432C81BDE8FF8762
:1024D000001001400014014001468888C0F3080044
:1024E0007047C1F308028280704700BFFEE700001A
:1024F00030B583B00446FDF75FFF9FED090B05463D
:102500008DED000B002221466846FEF707F82846AD
:10251000FDF757FF9DED000B03B030BD000000003C
:10252000000000000000000030B540F2FF742DED07
:10253000048BF0EE608A18EE901A85B0B0EE408AF7
:102540009FED2B9B05468DED008B34EA115147D052
:1025500053EC192B51EC180B00F008FB40D02A4625
:1025600051EC180B00F01AFD41EC180B18EE900A14
:102570008DED008B34EA10501CD053EC192B51EC2C
:10258000180B00F0F3FA2BD10220FDF71AFF00F030
:1025900043F810EE901A18EE900A8DED020B8DEDB7
:1025A000008B61F31E0003909DED020B05B0BDECA6
:1025B000048B30BD0220FDF704FF00F01DF810EE83
:1025C000901A18EE900A8DED020B8DED008B61F3E1
:1025D0001E0003909DED020B05B0BDEC048B30BDD9
:1025E00005B0B0EE480AF0EE680ABDEC048B30BDD1
:1025F00000000000000000009FED050B10B553EC3B
:10260000102B51EC100B00F059FB41EC100B10BDDE
:1026100000000000000000709FED050B10B553ECAA
:10262000102B51EC100B00F049FB41EC100B10BDCE
:10263000000000000000001030B504462DED048BB2
:1026400081B06A4691ED008B51EC180B00F090F8C8
:1026500000989FED239B7E300090002821DC53ECF6
:10266000192B51EC180B00F081FA1AD0002140F61A
:1026700008004FF00000054651EC180B00F030FA4E
:1026800008EE100A40F6080005EA00014FF00000CD
:10269000B5EEC08AF1EE10FA04BF0220FDF791FEFC
:1026A00017E00098FF280EDB0220FDF78AFE53ECAE
:1026B000192B51EC180B00F0FFFB8CBF9FED0A8A21
:1026C0009FED0A8A05E051EC180B00F009FA08EEBC
:1026D000100A84ED008A01B0BDEC048B30BD00000F
:1026E0000000000000000000000080FF0000807F6C
:1026F00010B5044690ED000B0846FFF715FF84ED7A
:10270000000B10BD30380A2801D20120704700208C
:10271000704700BF7047000010B504466FF004001A
:10272000FFF784FAE11704EB5171C1F3C701074ABF
:1027300011701046007800EB4001C1EBC0104FF65D
:10274000FF7101EAC0000249088010BD200000208E
:102750002200002000BF054A128802F04002002A31
:10276000F9D0C2B2014B9A807047000000100140BE
:1027700010B582B01446CDE900010023009A236011
:10278000194B21F0004098422ADA024328D0B0F5D4
:10279000801FA8BF226810DA9FED150B53EC102B99
:1027A0009DED000B51EC100B00F088FACDE9000113
:1027B0006FF0350221F0004022600F4B6FF31E5185
:1027C00003EB20501044206041F0FF5040F00050D7
:1027D00001909DED000B00BF02B051EC100B10BD3D
:1027E0009DED000BF8E700000000F07F0000000006
:1027F000000000000000504302FCFFFF4FF4FA7499
:10280000032500BF1A4800681A49B0FBF1F0C6B2B0
:102810003046FFF781FF4FF4A060FFF7DFF8A820F4
:10282000FFF77AFF4FF4E13000F0D8F84FF4E130D1
:1028300000F076F842F2CF0144F61F60FFF73EFA4F
:1028400060002946FFF78EFAFFF768F821460A482C
:10285000FFF705FC21460848FFF703FC07E007489F
:10286000006820B100200549086000F009F8F6E78B
:1028700004000020A08601000004014000000020A8
:1028800000B585B028211A48FFF73EFD0A211948F6
:10289000FFF727FE06211848FFF736FD1648828B02
:1028A00016A16846FDF700FD0A216846FFF72CFDDA
:1028B0001148C28B13A16846FDF7F6FC0A21684651
:1028C000FFF722FD0C48028C10A16846FDF7ECFCD6
:1028D0000A216846FFF718FD0748428C0DA168469B
:1028E000FDF7E2FC0A216846FFF70EFD05B000BDCA
:1028F0003C00002000440040040100206964A3BAA9
:102900002564090078A3BA256409000079A3BA25D3
:1029100064090000616E676C65A3BA25640A000053
:1029200010B588B0044601210820FFF763F80121A3
:102930004804FFF76FF8072205212548FEF7C6FF78
:10294000072206212248FEF7C1FF602006900220E0
:102950008DF81C008DF81D0000208DF81E00012050
:102960008DF81F0006A91A48FEF768FF02940020A0
:10297000ADF80C00ADF80E00ADF81000ADF8140085
:102980000C20ADF8120002A91248FFF73BFD01210F
:102990001048FFF7CFFC012240F225510D48FFF708
:1029A0000CFD26208DF8040002208DF80500032080
:1029B0008DF8060001208DF8070001A8FEF7D2FF70
:1029C0000A2005498883C8830884488408B010BD5C
:1029D000000C0240004400400401002010B588B003
:1029E000044601210846FFF705F801211020FFF7F2
:1029F00021F8072209212248FEF768FF07220A2151
:102A00001F48FEF763FF4FF4C060069002208DF868
:102A10001C008DF81D0000208DF81E0001208DF88F
:102A20001F0006A91648FEF709FF02940020ADF822
:102A30000C00ADF80E00ADF81000ADF814000C203D
:102A4000ADF8120002A90F48FFF7DCFC01210D4888
:102A5000FFF770FC012240F225510A48FFF7ADFC58
:102A600025208DF8040003208DF805008DF8060060
:102A700001208DF8070001A8FEF774FF08B010BD13
:102A8000000002400010014010B500290AD008786B
:102A9000002807D005487844FEF734F8002801D014
:102AA000002010BD0248784410BD00005A06000006
:102AB0005206000010B500290AD00878002807D077
:102AC00005487844FEF71EF8002801D0002010BD0C
:102AD0000248784410BD00004A060000420600008B
:102AE00021F00042A2F16052B2F5801F01F00043D4
:102AF00028BFD2F17F6C0BD95FEA001C43EAC20207
:102B000042EB507018BF704728BF20F0010070479B
:102B1000B2F5801FBCBF184670474FEA410C1CF548
:102B2000001F02D2084600F002BA70B500F070F93A
:102B300000000089FFF7F6BF4FF00040A0F58000CD
:102B40007047000002494FF0000000F0F5B900BFE7
:102B50000000F87F491058BFC1F140415B1058BFD9
:102B6000C3F140438B42EFF30080704751EA030CFE
:102B700017D41CF5801F58BFBCF5801F00F10680DC
:102B8000994218BF704708BF9042704707D711F5A8
:102B9000801F58BF13F5801F19D49942704789428E
:102BA00070471CF5801F08D5BCF5801FF7D58B42F8
:102BB00018BF704708BF824270474FF4001C1CEBDF
:102BC000410F38BF1CEB430F01D28B42704770B5E9
:102BD00000F01EF9922449004FF000514FF080534D
:102BE000FFF7B8BF4FEA41034FEA5353A3F58063A1
:102BF000D3F11E03C8BFD3F1210C0CDD4FF000420E
:102C000042EAC12242EA505232FA03FC8CEAE17CE9
:102C1000ACEBE1707047102BC4BF0020704703F588
:102C2000787CBCF1FF3F04D06FF0004282EA2100C3
:102C3000704770B500F0ECF849922480002070478E
:102C4000F2E7000051EA030C17D41CF5801F58BFAF
:102C5000BCF5801F00F10680994218BF704708BF7D
:102C60009042704707D711F5801F58BF13F5801F9A
:102C700019D499427047894270471CF5801F08D5C6
:102C8000BCF5801FF7D58B4218BF704708BF824242
:102C900070474FF4001C1CEB410F38BF1CEB430F77
:102CA00001D28B42704770B500F0B2F8922449000F
:102CB0004FF000514FF08053FFF74CBFDFF848C191
:102CC00070B51CEA111E1EBF1CEA13159EEA0C0FFC
:102CD00095EA0C0F00F06F8081EA030423EA4C139D
:102CE0004EEAD47E21EA4C1141F4801143F4801362
:102CF000AE44A1FB024CA0FB0365AEF17F7E36190A
:102D000055EB0C05A1FB034C4CF10003A0FB021C8E
:102D100016EB0C06654153F10003094218BF46F05B
:102D2000010613F4007F0BD14FEA03314FEA05305F
:102D3000340341EA155140EA16506FF003020AE0ED
:102D40004FEAC3214FEAC520F40241EA555140EA57
:102D500056506FF0020202EB2E4201EB025585EA5B
:102D6000CE710AD05FEA440C18BF24F0004450F141
:102D7000000041F1000120EAD47040F2FE7C62457F
:102D800000D270BDA84214BF4FF080444FF04044C1
:102D9000002E08BF0024BEF1806FA8BFA1F1C04182
:102DA000BDE8704080F282804FF0000001F1C04128
:102DB00001F0004170479EEA0C0F0CEA131518BF92
:102DC00095EA0C0F06D04FF0000081EA030E0EF0DA
:102DD000004170BD00F01CF88900013E00F007B80A
:102DE00000F009B84FEA430C5FEA5C5C08D081EA66
:102DF000030100F05BB84FEA410C5FEA5C5CF6D17E
:102E00004FF00000014970470000FF070000F87F05
:102E10000EF1020E2EF0030E5EF8046B364205D45E
:102E2000012A43EB030515F5001F12D8012841EBD9
:102E3000010C1CF5001F0CD80ED14FEAD17C15F502
:102E4000001F0CEB4C0C0CF1020C08BF4CEBD37CBC
:102E500004E04FF0080C01E04FEAD37C0CEB4C058A
:102E600026FA05F606F00706B6F1040C06D20EEBBC
:102E7000860CBDE870404CF0010C6047DFE80CF0B8
:102E8000090B02024FF000414FF00000A1F50021B4
:102E900070BD19461046012851EB010418BFD4F546
:102EA000001484BF002001F0004170BD0808A0F5A7
:102EB00000114FEA3101704753EA010C17D41CF599
:102EC000801F58BFBCF5801F00F106808B4218BFE1
:102ED000704708BF8242704707D713F5801F58BF5D
:102EE00011F5801F19D48B4270479B4270471CF527
:102EF000801F08D5BCF5801FF7D5994218BF7047D1
:102F000008BF904270474FF4001C1CEB430F38BFC2
:102F10001CEB410F01D2994270470FB40CBC03BCAB
:102F2000FFF7C1BE4FF04070E1EE100A7047FF217D
:102F300041EAD050C00570470CF00F03092B08BFC1
:102F4000082000F05F800A2B0BD0082B18BF7047B9
:102F500008BF1CF0400F0AD04FF000004FF00001F6
:102F600070471CF0400F18BF4FF0004070471CF036
:102F7000100F08D020F0704300F07F4242EAD301E6
:102F80004FEA4370704700F0604021F07F4242EA10
:102F9000000201F07F4040EA727070474FF0FF0C72
:102FA0004CF4E06C1CEA11531CBF9CEA030C9445E2
:102FB000C2BFDA4201EB02517047002B0DD0BCF1C9
:102FC000000F0FD0002A01F00041A4BF41F0E04102
:102FD00041F07F614FF00000704701F000414FF079
:102FE0000000704750EA01334FF09B0C18BF4CF0C3
:102FF000806C7FF4A7AD7047FDF726BCFDF734BEAB
:10300000FDF7C2BF1CF4801F11D01CF4E02F03D0C9
:103010006FEACC31490070474FF04050EFF3008227
:1030200022F0704242EA000282F3008870474FF0BB
:103030000000704702400000000000A000000000F7
:1030400005400000000000C8000000000C40000027
:103050000000409C00000000194000000020BCBEA1
:103060000000000034400000BFC91B8E00000004B7
:10307000B5400000504BCFD06607E2CF0100000002
:103080006C4100003E8251AADFEEA734010000002F
:10309000D9420000DCB5A0E23A301F97FFFFFFFFE6
:1030A000B4450000FD25A0C8E9A3C14FFFFFFFFF05
:1030B000FF3F00000000008000000000FF3F000014
:1030C00000000080000000001C320008000000200A
:1030D0003C000000C4010008583200083C000020F9
:1030E00014080000E0010008000000000000F07F6C
:1030F0001C00000043000000F8FFFFFF0C00000070
:103100000E0000000F0000002E0000001001000063
:1031100043000000F8FFFFFF0040404040404040B7
:10312000404041414141414040404040404040409A
:10313000404040404040404040050202020202023E
:10314000020202020202020202202020202020208D
:1031500020202002020202020202909090909090A1
:10316000101010101010101010101010101010105F
:1031700010101010020202020202888888888888D3
:1031800008080808080808080808080808080808BF
:1031900008080808020202024000000000000000C7
:1031A000000000000000000000000000000000001F
:1031B000000000000000000000000000000000000F
:1031C00000000000000000000000000000000000FF
:1031D00000000000000000000000000000000000EF
:1031E00000000000000000000000000000000000DF
:1031F00000000000000000000000000000000000CF
:1032000000000000000000000000000000000000BE
:1032100000000000000000000000000000000000AE
:10322000007A030A0000000000000000010203040D
:103230000607080900000000000000000000000070
:103240000000000000000000000001020304010271
:08325000030406070809000051
:040000050800018965
:00000001FF
